{
  "_format": "hh-sol-artifact-1",
  "contractName": "NFTixBooth",
  "sourceName": "contracts/NFTixBooth.sol",
  "abi": [
    {
      "inputs": [],
      "stateMutability": "nonpayable",
      "type": "constructor"
    },
    {
      "anonymous": false,
      "inputs": [
        {
          "indexed": true,
          "internalType": "address",
          "name": "owner",
          "type": "address"
        },
        {
          "indexed": true,
          "internalType": "address",
          "name": "approved",
          "type": "address"
        },
        {
          "indexed": true,
          "internalType": "uint256",
          "name": "tokenId",
          "type": "uint256"
        }
      ],
      "name": "Approval",
      "type": "event"
    },
    {
      "anonymous": false,
      "inputs": [
        {
          "indexed": true,
          "internalType": "address",
          "name": "owner",
          "type": "address"
        },
        {
          "indexed": true,
          "internalType": "address",
          "name": "operator",
          "type": "address"
        },
        {
          "indexed": false,
          "internalType": "bool",
          "name": "approved",
          "type": "bool"
        }
      ],
      "name": "ApprovalForAll",
      "type": "event"
    },
    {
      "anonymous": false,
      "inputs": [
        {
          "indexed": true,
          "internalType": "address",
          "name": "previousOwner",
          "type": "address"
        },
        {
          "indexed": true,
          "internalType": "address",
          "name": "newOwner",
          "type": "address"
        }
      ],
      "name": "OwnershipTransferred",
      "type": "event"
    },
    {
      "anonymous": false,
      "inputs": [
        {
          "indexed": true,
          "internalType": "address",
          "name": "from",
          "type": "address"
        },
        {
          "indexed": true,
          "internalType": "address",
          "name": "to",
          "type": "address"
        },
        {
          "indexed": true,
          "internalType": "uint256",
          "name": "tokenId",
          "type": "uint256"
        }
      ],
      "name": "Transfer",
      "type": "event"
    },
    {
      "inputs": [
        {
          "internalType": "address",
          "name": "to",
          "type": "address"
        },
        {
          "internalType": "uint256",
          "name": "tokenId",
          "type": "uint256"
        }
      ],
      "name": "approve",
      "outputs": [],
      "stateMutability": "nonpayable",
      "type": "function"
    },
    {
      "inputs": [],
      "name": "availableTicketCount",
      "outputs": [
        {
          "internalType": "uint256",
          "name": "",
          "type": "uint256"
        }
      ],
      "stateMutability": "view",
      "type": "function"
    },
    {
      "inputs": [],
      "name": "availableTickets",
      "outputs": [
        {
          "internalType": "uint256",
          "name": "",
          "type": "uint256"
        }
      ],
      "stateMutability": "view",
      "type": "function"
    },
    {
      "inputs": [
        {
          "internalType": "address",
          "name": "owner",
          "type": "address"
        }
      ],
      "name": "balanceOf",
      "outputs": [
        {
          "internalType": "uint256",
          "name": "",
          "type": "uint256"
        }
      ],
      "stateMutability": "view",
      "type": "function"
    },
    {
      "inputs": [
        {
          "internalType": "address",
          "name": "addy",
          "type": "address"
        }
      ],
      "name": "checkIn",
      "outputs": [],
      "stateMutability": "nonpayable",
      "type": "function"
    },
    {
      "inputs": [
        {
          "internalType": "address",
          "name": "",
          "type": "address"
        }
      ],
      "name": "checkIns",
      "outputs": [
        {
          "internalType": "bool",
          "name": "",
          "type": "bool"
        }
      ],
      "stateMutability": "view",
      "type": "function"
    },
    {
      "inputs": [],
      "name": "closeSale",
      "outputs": [],
      "stateMutability": "nonpayable",
      "type": "function"
    },
    {
      "inputs": [
        {
          "internalType": "address",
          "name": "addy",
          "type": "address"
        }
      ],
      "name": "confirmOwnership",
      "outputs": [
        {
          "internalType": "bool",
          "name": "",
          "type": "bool"
        }
      ],
      "stateMutability": "view",
      "type": "function"
    },
    {
      "inputs": [
        {
          "internalType": "uint256",
          "name": "tokenId",
          "type": "uint256"
        }
      ],
      "name": "getApproved",
      "outputs": [
        {
          "internalType": "address",
          "name": "",
          "type": "address"
        }
      ],
      "stateMutability": "view",
      "type": "function"
    },
    {
      "inputs": [
        {
          "internalType": "address",
          "name": "",
          "type": "address"
        },
        {
          "internalType": "uint256",
          "name": "",
          "type": "uint256"
        }
      ],
      "name": "holderTokenIDs",
      "outputs": [
        {
          "internalType": "uint256",
          "name": "",
          "type": "uint256"
        }
      ],
      "stateMutability": "view",
      "type": "function"
    },
    {
      "inputs": [
        {
          "internalType": "address",
          "name": "owner",
          "type": "address"
        },
        {
          "internalType": "address",
          "name": "operator",
          "type": "address"
        }
      ],
      "name": "isApprovedForAll",
      "outputs": [
        {
          "internalType": "bool",
          "name": "",
          "type": "bool"
        }
      ],
      "stateMutability": "view",
      "type": "function"
    },
    {
      "inputs": [],
      "name": "mint",
      "outputs": [],
      "stateMutability": "payable",
      "type": "function"
    },
    {
      "inputs": [],
      "name": "mintPrice",
      "outputs": [
        {
          "internalType": "uint256",
          "name": "",
          "type": "uint256"
        }
      ],
      "stateMutability": "view",
      "type": "function"
    },
    {
      "inputs": [],
      "name": "name",
      "outputs": [
        {
          "internalType": "string",
          "name": "",
          "type": "string"
        }
      ],
      "stateMutability": "view",
      "type": "function"
    },
    {
      "inputs": [],
      "name": "openSale",
      "outputs": [],
      "stateMutability": "nonpayable",
      "type": "function"
    },
    {
      "inputs": [],
      "name": "owner",
      "outputs": [
        {
          "internalType": "address",
          "name": "",
          "type": "address"
        }
      ],
      "stateMutability": "view",
      "type": "function"
    },
    {
      "inputs": [
        {
          "internalType": "uint256",
          "name": "tokenId",
          "type": "uint256"
        }
      ],
      "name": "ownerOf",
      "outputs": [
        {
          "internalType": "address",
          "name": "",
          "type": "address"
        }
      ],
      "stateMutability": "view",
      "type": "function"
    },
    {
      "inputs": [],
      "name": "renounceOwnership",
      "outputs": [],
      "stateMutability": "nonpayable",
      "type": "function"
    },
    {
      "inputs": [
        {
          "internalType": "address",
          "name": "from",
          "type": "address"
        },
        {
          "internalType": "address",
          "name": "to",
          "type": "address"
        },
        {
          "internalType": "uint256",
          "name": "tokenId",
          "type": "uint256"
        }
      ],
      "name": "safeTransferFrom",
      "outputs": [],
      "stateMutability": "nonpayable",
      "type": "function"
    },
    {
      "inputs": [
        {
          "internalType": "address",
          "name": "from",
          "type": "address"
        },
        {
          "internalType": "address",
          "name": "to",
          "type": "address"
        },
        {
          "internalType": "uint256",
          "name": "tokenId",
          "type": "uint256"
        },
        {
          "internalType": "bytes",
          "name": "_data",
          "type": "bytes"
        }
      ],
      "name": "safeTransferFrom",
      "outputs": [],
      "stateMutability": "nonpayable",
      "type": "function"
    },
    {
      "inputs": [],
      "name": "saleIsActive",
      "outputs": [
        {
          "internalType": "bool",
          "name": "",
          "type": "bool"
        }
      ],
      "stateMutability": "view",
      "type": "function"
    },
    {
      "inputs": [
        {
          "internalType": "address",
          "name": "operator",
          "type": "address"
        },
        {
          "internalType": "bool",
          "name": "approved",
          "type": "bool"
        }
      ],
      "name": "setApprovalForAll",
      "outputs": [],
      "stateMutability": "nonpayable",
      "type": "function"
    },
    {
      "inputs": [
        {
          "internalType": "bytes4",
          "name": "interfaceId",
          "type": "bytes4"
        }
      ],
      "name": "supportsInterface",
      "outputs": [
        {
          "internalType": "bool",
          "name": "",
          "type": "bool"
        }
      ],
      "stateMutability": "view",
      "type": "function"
    },
    {
      "inputs": [],
      "name": "symbol",
      "outputs": [
        {
          "internalType": "string",
          "name": "",
          "type": "string"
        }
      ],
      "stateMutability": "view",
      "type": "function"
    },
    {
      "inputs": [
        {
          "internalType": "uint256",
          "name": "tokenId",
          "type": "uint256"
        }
      ],
      "name": "tokenURI",
      "outputs": [
        {
          "internalType": "string",
          "name": "",
          "type": "string"
        }
      ],
      "stateMutability": "view",
      "type": "function"
    },
    {
      "inputs": [],
      "name": "totalTicketCount",
      "outputs": [
        {
          "internalType": "uint256",
          "name": "",
          "type": "uint256"
        }
      ],
      "stateMutability": "view",
      "type": "function"
    },
    {
      "inputs": [],
      "name": "totalTickets",
      "outputs": [
        {
          "internalType": "uint256",
          "name": "",
          "type": "uint256"
        }
      ],
      "stateMutability": "view",
      "type": "function"
    },
    {
      "inputs": [
        {
          "internalType": "address",
          "name": "from",
          "type": "address"
        },
        {
          "internalType": "address",
          "name": "to",
          "type": "address"
        },
        {
          "internalType": "uint256",
          "name": "tokenId",
          "type": "uint256"
        }
      ],
      "name": "transferFrom",
      "outputs": [],
      "stateMutability": "nonpayable",
      "type": "function"
    },
    {
      "inputs": [
        {
          "internalType": "address",
          "name": "newOwner",
          "type": "address"
        }
      ],
      "name": "transferOwnership",
      "outputs": [],
      "stateMutability": "nonpayable",
      "type": "function"
    }
  ],
  "bytecode": "0x60806040526009805460ff19169055600a808055600b556602d79883d20000600c553480156200002e57600080fd5b50604080518082018252600581526409c8ca8d2f60db1b60208083019182528351808501909452600484526309c8ca8b60e31b9084015281519192916200007891600091620001c7565b5080516200008e906001906020840190620001c7565b505050620000ab620000a5620000f460201b60201c565b620000f8565b620000c260086200014a60201b62000ede1760201c565b620000ee620000dd60086200015360201b62000ee71760201c565b6200015760201b62000eeb1760201c565b620002aa565b3390565b600780546001600160a01b038381166001600160a01b0319831681179093556040519116919082907f8be0079c531659141344cd1fd0a4f28419497f9722a3daafe3b4186f6b6457e090600090a35050565b80546001019055565b5490565b620001a3816040516024016200016f91815260200190565b60408051601f198184030181529190526020810180516001600160e01b0390811663f5b1bba960e01b17909152620001a616565b50565b80516a636f6e736f6c652e6c6f67602083016000808483855afa5050505050565b828054620001d5906200026d565b90600052602060002090601f016020900481019282620001f9576000855562000244565b82601f106200021457805160ff191683800117855562000244565b8280016001018555821562000244579182015b828111156200024457825182559160200191906001019062000227565b506200025292915062000256565b5090565b5b8082111562000252576000815560010162000257565b600181811c908216806200028257607f821691505b60208210811415620002a457634e487b7160e01b600052602260045260246000fd5b50919050565b61235680620002ba6000396000f3fe6080604052600436106101c25760003560e01c806370a08231116100f7578063b88d4fde11610095578063e985e9c511610064578063e985e9c5146104db578063eb8d244414610524578063ee55efee1461053e578063f2fde38b1461055357600080fd5b8063b88d4fde14610465578063c87b56dd14610485578063d9a59e33146104a5578063dd11247e146104c557600080fd5b806382ac0bb8116100d157806382ac0bb8146103f25780638da5cb5b1461041257806395d89b4114610430578063a22cb4651461044557600080fd5b806370a0823114610385578063715018a6146103a557806380f2abe3146103ba57600080fd5b80631acc9b62116101645780633d721ecd1161013e5780633d721ecd1461031a57806342842e0e1461032f5780636352211e1461034f5780636817c76c1461036f57600080fd5b80631acc9b62146102b457806323b872dd146102e45780633cfa7e011461030457600080fd5b8063095ea7b3116101a0578063095ea7b3146102565780631249c58b1461027857806314558fab14610280578063167ff46f1461029f57600080fd5b806301ffc9a7146101c757806306fdde03146101fc578063081812fc1461021e575b600080fd5b3480156101d357600080fd5b506101e76101e2366004611ceb565b610573565b60405190151581526020015b60405180910390f35b34801561020857600080fd5b506102116105c5565b6040516101f391906120a5565b34801561022a57600080fd5b5061023e610239366004611d23565b610657565b6040516001600160a01b0390911681526020016101f3565b34801561026257600080fd5b50610276610271366004611cc2565b6106e4565b005b6102766107fa565b34801561028c57600080fd5b50600a545b6040519081526020016101f3565b3480156102ab57600080fd5b506102766109b0565b3480156102c057600080fd5b506101e76102cf366004611b2c565b600e6020526000908152604090205460ff1681565b3480156102f057600080fd5b506102766102ff366004611b78565b6109e9565b34801561031057600080fd5b50610291600b5481565b34801561032657600080fd5b50600b54610291565b34801561033b57600080fd5b5061027661034a366004611b78565b610a1a565b34801561035b57600080fd5b5061023e61036a366004611d23565b610a35565b34801561037b57600080fd5b50610291600c5481565b34801561039157600080fd5b506102916103a0366004611b2c565b610aac565b3480156103b157600080fd5b50610276610b33565b3480156103c657600080fd5b506101e76103d5366004611b2c565b6001600160a01b03166000908152600d6020526040902054151590565b3480156103fe57600080fd5b5061029161040d366004611cc2565b610b69565b34801561041e57600080fd5b506007546001600160a01b031661023e565b34801561043c57600080fd5b50610211610b9a565b34801561045157600080fd5b50610276610460366004611c88565b610ba9565b34801561047157600080fd5b50610276610480366004611bb3565b610bb8565b34801561049157600080fd5b506102116104a0366004611d23565b610bf0565b3480156104b157600080fd5b506102766104c0366004611b2c565b610d67565b3480156104d157600080fd5b50610291600a5481565b3480156104e757600080fd5b506101e76104f6366004611b46565b6001600160a01b03918216600090815260056020908152604080832093909416825291909152205460ff1690565b34801561053057600080fd5b506009546101e79060ff1681565b34801561054a57600080fd5b50610276610e0d565b34801561055f57600080fd5b5061027661056e366004611b2c565b610e43565b60006001600160e01b031982166380ac58cd60e01b14806105a457506001600160e01b03198216635b5e139f60e01b145b806105bf57506301ffc9a760e01b6001600160e01b03198316145b92915050565b6060600080546105d49061221e565b80601f01602080910402602001604051908101604052809291908181526020018280546106009061221e565b801561064d5780601f106106225761010080835404028352916020019161064d565b820191906000526020600020905b81548152906001019060200180831161063057829003601f168201915b5050505050905090565b600061066282610f30565b6106c85760405162461bcd60e51b815260206004820152602c60248201527f4552433732313a20617070726f76656420717565727920666f72206e6f6e657860448201526b34b9ba32b73a103a37b5b2b760a11b60648201526084015b60405180910390fd5b506000908152600460205260409020546001600160a01b031690565b60006106ef82610a35565b9050806001600160a01b0316836001600160a01b0316141561075d5760405162461bcd60e51b815260206004820152602160248201527f4552433732313a20617070726f76616c20746f2063757272656e74206f776e656044820152603960f91b60648201526084016106bf565b336001600160a01b0382161480610779575061077981336104f6565b6107eb5760405162461bcd60e51b815260206004820152603860248201527f4552433732313a20617070726f76652063616c6c6572206973206e6f74206f7760448201527f6e6572206e6f7220617070726f76656420666f7220616c6c000000000000000060648201526084016106bf565b6107f58383610f4d565b505050565b6000600b54116108415760405162461bcd60e51b81526020600482015260126024820152714e6f7420656e6f756768207469636b65747360701b60448201526064016106bf565b600c543410156108855760405162461bcd60e51b815260206004820152600f60248201526e4e6f7420656e6f756768204554482160881b60448201526064016106bf565b60095460ff166108d75760405162461bcd60e51b815260206004820152601760248201527f5469636b65747320617265206e6f74206f6e2073616c6500000000000000000060448201526064016106bf565b60006109116108ed6108e860085490565b610fbb565b6040516020016108fd9190611f44565b6040516020818303038152906040526110d5565b90506000816040516020016109269190611ddc565b604051602081830303815290604052905061094081611249565b6109523361094d60085490565b61128c565b61096461095e60085490565b826112a6565b336000908152600d602052604090206008548154600181018355600092835260209092209091015561099a600880546001019055565b6001600b546109a991906121db565b600b555050565b6007546001600160a01b031633146109da5760405162461bcd60e51b81526004016106bf9061210a565b6009805460ff19166001179055565b6109f33382611331565b610a0f5760405162461bcd60e51b81526004016106bf9061213f565b6107f5838383611417565b6107f583838360405180602001604052806000815250610bb8565b6000818152600260205260408120546001600160a01b0316806105bf5760405162461bcd60e51b815260206004820152602960248201527f4552433732313a206f776e657220717565727920666f72206e6f6e657869737460448201526832b73a103a37b5b2b760b91b60648201526084016106bf565b60006001600160a01b038216610b175760405162461bcd60e51b815260206004820152602a60248201527f4552433732313a2062616c616e636520717565727920666f7220746865207a65604482015269726f206164647265737360b01b60648201526084016106bf565b506001600160a01b031660009081526003602052604090205490565b6007546001600160a01b03163314610b5d5760405162461bcd60e51b81526004016106bf9061210a565b610b6760006115b7565b565b600d6020528160005260406000208181548110610b8557600080fd5b90600052602060002001600091509150505481565b6060600180546105d49061221e565b610bb4338383611609565b5050565b610bc23383611331565b610bde5760405162461bcd60e51b81526004016106bf9061213f565b610bea848484846116d8565b50505050565b6060610bfb82610f30565b610c615760405162461bcd60e51b815260206004820152603160248201527f45524337323155524953746f726167653a2055524920717565727920666f72206044820152703737b732bc34b9ba32b73a103a37b5b2b760791b60648201526084016106bf565b60008281526006602052604081208054610c7a9061221e565b80601f0160208091040260200160405190810160405280929190818152602001828054610ca69061221e565b8015610cf35780601f10610cc857610100808354040283529160200191610cf3565b820191906000526020600020905b815481529060010190602001808311610cd657829003601f168201915b505050505090506000610d1160408051602081019091526000815290565b9050805160001415610d24575092915050565b815115610d56578082604051602001610d3e929190611dad565b60405160208183030381529060405292505050919050565b610d5f8461170b565b949350505050565b6001600160a01b0381166000908152600e60209081526040808320805460ff19166001179055600d909152812080548290610db257634e487b7160e01b600052603260045260246000fd5b906000526020600020015490506000610ddd610dcd83610fbb565b6040516020016108fd9190611e21565b9050600081604051602001610df29190611ddc565b6040516020818303038152906040529050610bea83826112a6565b6007546001600160a01b03163314610e375760405162461bcd60e51b81526004016106bf9061210a565b6009805460ff19169055565b6007546001600160a01b03163314610e6d5760405162461bcd60e51b81526004016106bf9061210a565b6001600160a01b038116610ed25760405162461bcd60e51b815260206004820152602660248201527f4f776e61626c653a206e6577206f776e657220697320746865207a65726f206160448201526564647265737360d01b60648201526084016106bf565b610edb816115b7565b50565b80546001019055565b5490565b610edb81604051602401610f0191815260200190565b60408051601f198184030181529190526020810180516001600160e01b031663f5b1bba960e01b1790526117e3565b6000908152600260205260409020546001600160a01b0316151590565b600081815260046020526040902080546001600160a01b0319166001600160a01b0384169081179091558190610f8282610a35565b6001600160a01b03167f8c5be1e5ebec7d5bd14f71427d1e84f3dd0314c0f7b2291e5b200ac8c7c3b92560405160405180910390a45050565b606081610fdf5750506040805180820190915260018152600360fc1b602082015290565b8160005b81156110095780610ff381612259565b91506110029050600a836121a8565b9150610fe3565b60008167ffffffffffffffff81111561103257634e487b7160e01b600052604160045260246000fd5b6040519080825280601f01601f19166020018201604052801561105c576020820181803683370190505b5090505b8415610d5f576110716001836121db565b915061107e600a86612274565b611089906030612190565b60f81b8183815181106110ac57634e487b7160e01b600052603260045260246000fd5b60200101906001600160f81b031916908160001a9053506110ce600a866121a8565b9450611060565b8051606090806110f5575050604080516020810190915260008152919050565b60006003611104836002612190565b61110e91906121a8565b6111199060046121bc565b90506000611128826020612190565b67ffffffffffffffff81111561114e57634e487b7160e01b600052604160045260246000fd5b6040519080825280601f01601f191660200182016040528015611178576020820181803683370190505b50905060006040518060600160405280604081526020016122e1604091399050600181016020830160005b86811015611204576003818a01810151603f601282901c8116860151600c83901c8216870151600684901c831688015192909316870151600891821b60ff94851601821b92841692909201901b91160160e01b8352600490920191016111a3565b50600386066001811461121e576002811461122f5761123b565b613d3d60f01b60011983015261123b565b603d60f81b6000198301525b505050918152949350505050565b610edb8160405160240161125d91906120a5565b60408051601f198184030181529190526020810180516001600160e01b031663104c13eb60e21b1790526117e3565b610bb4828260405180602001604052806000815250611804565b6112af82610f30565b6113125760405162461bcd60e51b815260206004820152602e60248201527f45524337323155524953746f726167653a2055524920736574206f66206e6f6e60448201526d32bc34b9ba32b73a103a37b5b2b760911b60648201526084016106bf565b600082815260066020908152604090912082516107f592840190611a77565b600061133c82610f30565b61139d5760405162461bcd60e51b815260206004820152602c60248201527f4552433732313a206f70657261746f7220717565727920666f72206e6f6e657860448201526b34b9ba32b73a103a37b5b2b760a11b60648201526084016106bf565b60006113a883610a35565b9050806001600160a01b0316846001600160a01b031614806113e35750836001600160a01b03166113d884610657565b6001600160a01b0316145b80610d5f57506001600160a01b0380821660009081526005602090815260408083209388168352929052205460ff16610d5f565b826001600160a01b031661142a82610a35565b6001600160a01b0316146114925760405162461bcd60e51b815260206004820152602960248201527f4552433732313a207472616e73666572206f6620746f6b656e2074686174206960448201526839903737ba1037bbb760b91b60648201526084016106bf565b6001600160a01b0382166114f45760405162461bcd60e51b8152602060048201526024808201527f4552433732313a207472616e7366657220746f20746865207a65726f206164646044820152637265737360e01b60648201526084016106bf565b6114ff600082610f4d565b6001600160a01b03831660009081526003602052604081208054600192906115289084906121db565b90915550506001600160a01b0382166000908152600360205260408120805460019290611556908490612190565b909155505060008181526002602052604080822080546001600160a01b0319166001600160a01b0386811691821790925591518493918716917fddf252ad1be2c89b69c2b068fc378daa952ba7f163c4a11628f55a4df523b3ef91a4505050565b600780546001600160a01b038381166001600160a01b0319831681179093556040519116919082907f8be0079c531659141344cd1fd0a4f28419497f9722a3daafe3b4186f6b6457e090600090a35050565b816001600160a01b0316836001600160a01b0316141561166b5760405162461bcd60e51b815260206004820152601960248201527f4552433732313a20617070726f766520746f2063616c6c65720000000000000060448201526064016106bf565b6001600160a01b03838116600081815260056020908152604080832094871680845294825291829020805460ff191686151590811790915591519182527f17307eab39ab6107e8899845ad3d59bd9653f200f220920489ca2b5937696c31910160405180910390a3505050565b6116e3848484611417565b6116ef84848484611837565b610bea5760405162461bcd60e51b81526004016106bf906120b8565b606061171682610f30565b61177a5760405162461bcd60e51b815260206004820152602f60248201527f4552433732314d657461646174613a2055524920717565727920666f72206e6f60448201526e3732bc34b9ba32b73a103a37b5b2b760891b60648201526084016106bf565b600061179160408051602081019091526000815290565b905060008151116117b157604051806020016040528060008152506117dc565b806117bb84610fbb565b6040516020016117cc929190611dad565b6040516020818303038152906040525b9392505050565b80516a636f6e736f6c652e6c6f67602083016000808483855afa5050505050565b61180e8383611944565b61181b6000848484611837565b6107f55760405162461bcd60e51b81526004016106bf906120b8565b60006001600160a01b0384163b1561193957604051630a85bd0160e11b81526001600160a01b0385169063150b7a029061187b903390899088908890600401612068565b602060405180830381600087803b15801561189557600080fd5b505af19250505080156118c5575060408051601f3d908101601f191682019092526118c291810190611d07565b60015b61191f573d8080156118f3576040519150601f19603f3d011682016040523d82523d6000602084013e6118f8565b606091505b5080516119175760405162461bcd60e51b81526004016106bf906120b8565b805181602001fd5b6001600160e01b031916630a85bd0160e11b149050610d5f565b506001949350505050565b6001600160a01b03821661199a5760405162461bcd60e51b815260206004820181905260248201527f4552433732313a206d696e7420746f20746865207a65726f206164647265737360448201526064016106bf565b6119a381610f30565b156119f05760405162461bcd60e51b815260206004820152601c60248201527f4552433732313a20746f6b656e20616c7265616479206d696e7465640000000060448201526064016106bf565b6001600160a01b0382166000908152600360205260408120805460019290611a19908490612190565b909155505060008181526002602052604080822080546001600160a01b0319166001600160a01b03861690811790915590518392907fddf252ad1be2c89b69c2b068fc378daa952ba7f163c4a11628f55a4df523b3ef908290a45050565b828054611a839061221e565b90600052602060002090601f016020900481019282611aa55760008555611aeb565b82601f10611abe57805160ff1916838001178555611aeb565b82800160010185558215611aeb579182015b82811115611aeb578251825591602001919060010190611ad0565b50611af7929150611afb565b5090565b5b80821115611af75760008155600101611afc565b80356001600160a01b0381168114611b2757600080fd5b919050565b600060208284031215611b3d578081fd5b6117dc82611b10565b60008060408385031215611b58578081fd5b611b6183611b10565b9150611b6f60208401611b10565b90509250929050565b600080600060608486031215611b8c578081fd5b611b9584611b10565b9250611ba360208501611b10565b9150604084013590509250925092565b60008060008060808587031215611bc8578081fd5b611bd185611b10565b9350611bdf60208601611b10565b925060408501359150606085013567ffffffffffffffff80821115611c02578283fd5b818701915087601f830112611c15578283fd5b813581811115611c2757611c276122b4565b604051601f8201601f19908116603f01168101908382118183101715611c4f57611c4f6122b4565b816040528281528a6020848701011115611c67578586fd5b82602086016020830137918201602001949094529598949750929550505050565b60008060408385031215611c9a578182fd5b611ca383611b10565b915060208301358015158114611cb7578182fd5b809150509250929050565b60008060408385031215611cd4578182fd5b611cdd83611b10565b946020939093013593505050565b600060208284031215611cfc578081fd5b81356117dc816122ca565b600060208284031215611d18578081fd5b81516117dc816122ca565b600060208284031215611d34578081fd5b5035919050565b60008151808452611d538160208601602086016121f2565b601f01601f19169290920160200192915050565b7f222c20226465736372697074696f6e223a202241204e46542d706f77657265648152730103a34b1b5b2ba34b7339039bcb9ba32b69116160651b602082015260340190565b60008351611dbf8184602088016121f2565b835190830190611dd38183602088016121f2565b01949350505050565b7f646174613a6170706c69636174696f6e2f6a736f6e3b6261736536342c000000815260008251611e1481601d8501602087016121f2565b91909101601d0192915050565b717b20226e616d65223a20224e46546978202360701b81528151600090611e4f8160128501602087016121f2565b611e5d601282850101611d67565b7f22747261697473223a205b7b202274726169745f74797065223a20224368656381527f6b656420496e222c202276616c7565223a20227472756522207d2c207b20227460208201527f726169745f74797065223a2022507572636861736564222c202276616c75652260408201526c01d10113a393ab291103eae961609d1b60608201527f22696d616765223a2022697066733a2f2f516d64384643627235656946637253606d8201527f7a6a3350526f76473631745665757333484a7a54334234365858614a6d576a22608d82015261207d60f01b60ad82015260af01949350505050565b717b20226e616d65223a20224e46546978202360701b81528151600090611f728160128501602087016121f2565b611f80601282850101611d67565b7f22747261697473223a205b7b202274726169745f74797065223a20224368656381527f6b656420496e222c202276616c7565223a202266616c736522207d2c207b202260208201527f74726169745f74797065223a2022507572636861736564222c202276616c756560408201526d0111d10113a393ab291103eae96160951b60608201527f22696d616765223a2022697066733a2f2f516d6235514b76393739505a735975606e8201527f584c576945567158504a616b4658436d45457a707a716e4352665371764c4322608e82015261207d60f01b60ae82015260b001949350505050565b6001600160a01b038581168252841660208201526040810183905260806060820181905260009061209b90830184611d3b565b9695505050505050565b6020815260006117dc6020830184611d3b565b60208082526032908201527f4552433732313a207472616e7366657220746f206e6f6e20455243373231526560408201527131b2b4bb32b91034b6b83632b6b2b73a32b960711b606082015260800190565b6020808252818101527f4f776e61626c653a2063616c6c6572206973206e6f7420746865206f776e6572604082015260600190565b60208082526031908201527f4552433732313a207472616e736665722063616c6c6572206973206e6f74206f6040820152701ddb995c881b9bdc88185c1c1c9bdd9959607a1b606082015260800190565b600082198211156121a3576121a3612288565b500190565b6000826121b7576121b761229e565b500490565b60008160001904831182151516156121d6576121d6612288565b500290565b6000828210156121ed576121ed612288565b500390565b60005b8381101561220d5781810151838201526020016121f5565b83811115610bea5750506000910152565b600181811c9082168061223257607f821691505b6020821081141561225357634e487b7160e01b600052602260045260246000fd5b50919050565b600060001982141561226d5761226d612288565b5060010190565b6000826122835761228361229e565b500690565b634e487b7160e01b600052601160045260246000fd5b634e487b7160e01b600052601260045260246000fd5b634e487b7160e01b600052604160045260246000fd5b6001600160e01b031981168114610edb57600080fdfe4142434445464748494a4b4c4d4e4f505152535455565758595a6162636465666768696a6b6c6d6e6f707172737475767778797a303132333435363738392b2fa2646970667358221220179c4380b6983a3d7ba5393b7b1dcf9a6eb5c758cebe05eb57db5dc37583fe1b64736f6c63430008040033",
  "linkReferences": {},
  "deployedLinkReferences": {}
}